:100000000C9451000C946C000C946C000C946C00DB
:100010000C946C000C946C000C946C000C946C00B0
:100020000C946C000C946C000C94AC000C946C0060
:100030000C946C000C946C000C946C000C946C0090
:100040000C946C000C946C000C946C000C946C0080
:100050000C946C000C946C000C946C00000000007C
:100060000019010201020E010601017165706E00A6
:10007000342E302E3034000001020408102040805D
:1000800071666E00FFFEFDFBF7EFDFBF7F00010230
:1000900002030303030404040404040404716B6EE8
:1000A000000011241FBECFEFD4E0DEBFCDBF11E0B2
:1000B000A0E0B1E0EAEFFCE002C005900D92A230B2
:1000C000B107D9F711E0A2E0B1E001C01D92A5325D
:1000D000B107E1F70C94D6000C9400008FEF8AB9B9
:1000E0001BB88BE987BD0895F8948DE084BD82E04C
:1000F00080936E0078940895F8945F9A5F9878944E
:100100000895F8948FEF8BB9FFCF813051F0813093
:1001100028F0823051F0833079F40BC0589A599806
:1001200002C05898599A5A980895589859985A9AC6
:100130000895589859985A980895813039F0813027
:1001400018F0823041F405C05C9A01C05C985D985B
:1001500008955C985D9A08951F920F920FB60F92C2
:1001600011242F933F934F935F936F937F938F93BC
:100170009F93AF93BF93EF93FF930E942C058091C1
:100180002401882311F00E94B605FF91EF91BF91E1
:10019000AF919F918F917F916F915F914F913F911F
:1001A0002F910F900FBE0F901F9018950E944B013A
:1001B0000E94DF000E946E000E943306089586EEC2
:1001C00090E090930F0180930E010895FC018BE164
:1001D00091E09183808382E090E00895CF93DF9354
:1001E000EC018A81813019F08430E1F40EC060E9BD
:1001F00071E0CE010E94C20440E066E089E191E036
:100200000E94540580E090E013C040E067E089E17F
:1002100091E00E9454058BE191E09983888382E00C
:1002200090E006C082ED92E09983888383E090E0BD
:10023000DF91CF910895FC018281813019F08430E3
:1002400019F508C08AE0828766E970E0CF010E9454
:10025000C20410C0828581508287882371F066E9CC
:1002600070E0CF010E94C20440E065E089E191E0C6
:100270000E94540580E090E008958EEE90E0918316
:10028000808382E090E0089582ED92E09183808304
:1002900083E090E0089582E591E090931A018093C5
:1002A00019010895FC018CED91E09183808382E037
:1002B00090E00895FC018281843051F0853029F06E
:1002C000813069F480E090E0089586E791E002C013
:1002D0008EE891E09183808382E090E008958FEA38
:1002E00092E09183808383E090E00895FC01828115
:1002F000813019F0843059F403C080E090E0089513
:100300008FE892E09183808382E090E008958FEA05
:1003100092E09183808383E090E00895FC018281E4
:10032000813019F0853059F403C080E090E00895E1
:100330008FE892E09183808382E090E008958FEAD5
:1003400092E09183808383E090E00895FC018281B4
:10035000823019F0833071F406C080E00E9485007D
:1003600080E090E008958FEA92E09183808382E0BC
:1003700090E008958CED91E09183808383E090E09C
:100380000895FC018281823019F0833071F406C037
:1003900080E00E949D0080E090E008958FE692E06A
:1003A0009183808382E090E008958CED91E09183C9
:1003B000808383E090E00895FC018281833069F0BE
:1003C000863071F0813099F480E00E94850080E0F1
:1003D0000E949D0080E090E0089586EA91E002C0CE
:1003E0008EEF91E09183808382E090E0089582ED2A
:1003F00092E09183808383E090E00895CF93DF9330
:10040000EC018A81843059F0873019F1813041F54F
:1004100069E170E0CE010E94C2041A8617C069E14A
:1004200070E0CE010E94C2048A8580FD05C080E094
:100430000E94850080E004C083E00E94850081E086
:100440000E949D008A8591E089278A8780E090E05C
:100450000DC08CED91E09983888382E090E006C026
:1004600082ED92E09983888383E090E0DF91CF91E1
:100470000895CF93DF93EC018A81813019F08430A5
:1004800029F508C06AE070E0CE010E94C20485E14F
:100490008A8712C08A85882391F080FD02C080E09F
:1004A00001C081E00E949D008A8581508A876AE0B0
:1004B00070E0CE010E94C20480E090E00DC086EAA8
:1004C00091E09983888382E090E006C081EC91E01E
:1004D0009983888383E090E0DF91CF910895FC01B8
:1004E0008281813019F0843099F40BC066E970E0A4
:1004F000CF010E94C20482E00E949D0080E090E053
:10050000089589E392E09183808382E090E00895EA
:1005100081EC91E09183808383E090E00895FC0179
:100520008281813019F0843099F40BC066E970E063
:10053000CF010E94C20481E00E94850080E090E02B
:10054000089581EC91E09183808382E090E00895AA
:1005500086EA91E09183808383E090E00895FC0136
:100560008281813019F0833099F40BC060E971E029
:10057000CF010E94C20482E00E94850080E090E0EA
:1005800008958AE591E09183808382E090E0089568
:1005900086EA91E09183808383E090E0089580E78C
:1005A00090E0089581E090E008957F928F929F926D
:1005B000AF92BF92CF92DF92EF92FF920F931F9371
:1005C000CF93DF93CDB7DEB72A970FB6F894DEBF8F
:1005D0000FBECDBF8C01DC01CD90DC90F801E08036
:1005E000F180C801F70109958330C1F3823009F029
:1005F00035C1D8018D919C919A838983DC82CB820D
:1006000010C082E0F8018283C801F60109958823B1
:1006100029F4F8011282C801F6010995D801CD909C
:10062000DC90CE14DF0469F7A980BA80CA14DB0419
:10063000B9F0F8011282C801F5010995D801ED90D1
:10064000FC90CE14DF0409F4A1C0F8011282C801A5
:10065000F6010995D8018D909C908E149F0439F471
:1006600082E0F8018283C801F60109958FC08A14DF
:100670009B0459F482E0F8018283C801F6010995D0
:10068000AFEFAA2E84C0AE2E82C0FC82EB82F801AE
:100690001282C801F7010995F1E0AF2E772423C03B
:1006A000BA2CB394D801ED90FC90EC14FD0469F4DD
:1006B000B4E0BB1534F464EC70E08BE690E00E948B
:1006C000810080E0E1E07E2E04C0C801F7010995B9
:1006D000AB2CEB2DFF27E7FDF095EE0FFF1FEC0F86
:1006E000FD1FF282E1828330D9F2772009F04FC0FA
:1006F000E4E0EA1534F46FEC70E08BE690E00E94E1
:10070000810082E0F8018283C801F60109952A2D53
:10071000AE014F5F5F4FE22FFF27E7FDF095EE0F31
:10072000FF1FE40FF51F80819181E22FE1508816B1
:10073000990609F4A8CF2E2FE7FFEDCF82E0F8014C
:100740008283C801F4010995882329F4F8011282F3
:10075000C801F4010995D8018D909C902A2DAE0115
:100760004F5F5F4FE22FFF27E7FDF095EE0FFF1F72
:10077000E40FF51F80819181E22FE15088169906E0
:1007800009F481CF2E2FE7FFEDCFD8CFAA2481E047
:10079000F80182830EC0EA2DFF27E7FDF095EE0FEA
:1007A000FF1FEC0FFD1F0180F281E02DC8010995AC
:1007B000AA94A7FEF0CFC980DA80D801CD92DC924E
:1007C00044C0D8012D913C913A832983F8011282CB
:1007D000C801F9010995BB2493E0E92EF12CEC0E38
:1007E000FD1E07C0B394D701ED93FD937D01C801B1
:1007F0000995D801ED91FC911197EC15FD0591F744
:10080000C980DA80CD92DC92B4E0BB1534F46CE19F
:1008100071E08BE690E00E94810081E0F801828324
:10082000EB2CFF24E7FCF094EE0CFF1CFE01EE0D18
:10083000FF1D0180F281E02DC8010995BA948EEF69
:100840009FEFE80EF91EB7FEF1CF83E0F801828337
:10085000C801F6010995823009F4B3CFD801CD92D1
:10086000DC922A960FB6F894DEBF0FBECDBFDF91A3
:10087000CF911F910F91FF90EF90DF90CF90BF909D
:10088000AF909F908F907F900895AF92BF92DF922C
:10089000EF92FF920F931F93CF93DF93CDB7DEB705
:1008A0002A970FB6F894DEBF0FBECDBF7C01DC01E6
:1008B000ED91FC910995823031F069E570E08BE6AD
:1008C00090E00E94810012EDA12E12E0B12EF701FE
:1008D000208131813A8329831282C701F901099568
:1008E000DD248E010D5F1F4F07C0D394D801ED9317
:1008F000FD938D01C7010995D701ED91FC911197E9
:10090000EA15FB0591F7A980BA80AD92BC92B4E0DC
:10091000BD1534F469E670E08BE690E00E9481003A
:1009200081E0F70182830D2D112707FD1095000F3F
:10093000111FFE01E00FF11F0180F281E02DC701C0
:100940000995DA9402501040D7FEF3CF83E0F70107
:100950008283C701F5010995823009F4B8CFD70128
:10096000AD92BC922A960FB6F894DEBF0FBECDBFF3
:10097000DF91CF911F910F91FF90EF90DF90BF908B
:10098000AF900895FC01F89471876087789408957A
:10099000FC01F8941186108678940895FF920F93C5
:1009A0001F93CF93DF93EC01062FF42E8F81EC8100
:1009B000882371F481E08F836A834B8380912401C3
:1009C000FF27E958FF4FE4918E2B809324013EC00E
:1009D00015E0E19FF0011124E05AFF4FE491E81780
:1009E00030F46CE670E080E890E00E9481008F8136
:1009F0008F5F8F83EC81E19FF0011124E25AFF4F5A
:100A000085919491ED81FF27EE0FFF1FE80FF91FED
:100A10000083EC81E19FF0011124E25AFF4F8591A0
:100A20009491ED81FF27EE0FFF1FE80FF91FF18270
:100A30008D81882341F4EC81E19FF0011124E05A7B
:100A4000FF4FE491ED838D8181508D83DF91CF91B4
:100A50001F910F91FF90089582E080930A01E09129
:100A60000A0185E0E89FF0011124E45AFF4FA591A7
:100A7000B491B0930901A0930801FD01808591858F
:100A8000009751F0019791878087892B29F440E0E6
:100A900064E0CD010E94CE0480910A0181508093D0
:100AA0000A018823E1F60895FF920F931F93CF93D5
:100AB000DF93EC01062FF42EF8948F81EC818823CC
:100AC00081F481E08F836A834B8380912401FF2727
:100AD000E958FF4FE4918E2B809324010E94B605C4
:100AE0003EC015E0E19FF0011124E05AFF4FE49170
:100AF000E81730F464E470E080E890E00E94810040
:100B00008F818F5F8F83EC81E19FF0011124E25A86
:100B1000FF4F85919491ED81FF27EE0FFF1FE80FA6
:100B2000F91F0083EC81E19FF0011124E25AFF4F8D
:100B300085919491ED81FF27EE0FFF1FE80FF91FBC
:100B4000F1828D81882341F4EC81E19FF001112431
:100B5000E05AFF4FE491ED838D8181508D8378942D
:100B6000DF91CF911F910F91FF900895CF92DF9267
:100B7000EF92FF920F931F93CF93DF93E0912401A5
:100B8000FF27E357FF4FE491809100018E1708F093
:100B900061C0C0900001DE2ED09200017894ED2C4F
:100BA000FF248701000F111F000F111F0E0D1F1DC5
:100BB000045A1F4FF801859194910E94D502F89430
:100BC000F801C591D491D0930D01C0930C018F8190
:100BD00081508F83882359F480912401ED2DFF27C4
:100BE000EC57FF4FE4918E238093240123C097019B
:100BF000220F331F220F331F2E0D3F1DC901825AB2
:100C00009F4FFC01459154919E81A92FBB27AA0FAC
:100C1000BB1FA40FB51F8C918A83FD0181818B833B
:100C2000992329F4F901E05AFF4FE491EE838E8174
:100C300081508E8380912401882351F0E09124011A
:100C4000FF27E357FF4FE491DE2ECE1608F4A4CF22
:100C5000C0920001DF91CF911F910F91FF90EF9013
:100C6000DF90CF90089581E080930B01E5E08E9FA7
:100C7000F0011124E45AFF4F8591949190930D0156
:100C800080930C01892B31F460E470E08DE990E0F1
:100C90000E94810080910B01E0910C01F0910D0107
:100CA00084838F5F80930B01833000F381E0809316
:100CB0000B01E5E08E9FF0011124E45AFF4F85916E
:100CC000949190930D0180930C010E9445048091B2
:100CD0000B018F5F80930B01833058F3F8941092CF
:100CE000000180912401882311F00E94B6057894B8
:0A0CF0000E9474000E947C00FDCFFA
:020CFA000300F5
:00000001FF
