:100000000C944F000C946A000C946A000C946A00E3
:100010000C946A000C946A000C946A000C946A00B8
:100020000C946A000C946A000C94AD000C946A0065
:100030000C946A000C946A000C946A000C946A0098
:100040000C946A000C946A000C946A000C946A0088
:100050000C946A000C946A000C946A000000000082
:100060000017010001020C010401017165706E00AE
:10007000342E302E30340071666E00FFFEFDFBF72B
:10008000EFDFBF7F00010202030303030404040443
:10009000040404040001020408102040800011241C
:1000A0001FBECFEFD4E0DEBFCDBF11E0A0E0B1E0D6
:1000B000E4EAFCE002C005900D92A030B107D9F748
:1000C00011E0A0E0B1E001C01D92A332B107E1F759
:1000D0000C94D1000C9400008FEF8AB91BB88BE907
:1000E00087BD0895F8948DE084BD82E080936E0012
:1000F000789408955F9A5F9881E083BF789488959B
:1001000013BE0895F8948FEF8BB9FFCF813051F073
:10011000813028F0823051F0833079F40BC0589A46
:10012000599802C05898599A5A98089558985998C9
:100130005A9A0895589859985A980895813039F0E4
:10014000813018F0823041F405C05C9A01C05C989F
:100150005D9808955C985D9A08951F920F920FB66E
:100160000F9211242F933F934F935F936F937F933D
:100170008F939F93AF93BF93EF93FF930E942705B5
:10018000FF91EF91BF91AF919F918F917F916F916F
:100190005F914F913F912F910F900FBE0F901F9045
:1001A00018950E9446010E94DA000E946C000E948D
:1001B000AF05089581EE90E090930D0180930C01BE
:1001C0000895FC0186E191E09183808382E090E0D4
:1001D0000895CF93DF93EC018A81813019F0843048
:1001E000E1F40EC060E971E0CE010E94BD0440E080
:1001F00066E087E191E00E944F0580E090E013C047
:1002000040E067E087E191E00E944F0586E191E0E0
:100210009983888382E090E006C08DEC92E0998318
:10022000888383E090E0DF91CF910895FC01828183
:10023000813019F0843019F508C08AE0828766E9B8
:1002400070E0CF010E94BD0410C08285815082877A
:10025000882371F066E970E0CF010E94BD0440E0A0
:1002600065E087E191E00E944F0580E090E008950D
:1002700089EE90E09183808382E090E008958DEC98
:1002800092E09183808383E090E008958DE491E093
:1002900090931801809317010895FC0187ED91E078
:1002A0009183808382E090E00895FC018281843014
:1002B00051F0853029F0813069F480E090E00895B4
:1002C00081E791E002C089E891E09183808382E038
:1002D00090E008958AEA92E09183808383E090E041
:1002E0000895FC018281813019F0843059F403C0F3
:1002F00080E090E008958AE892E09183808382E034
:1003000090E008958AEA92E09183808383E090E010
:100310000895FC018281813019F0853059F403C0C1
:1003200080E090E008958AE892E09183808382E003
:1003300090E008958AEA92E09183808383E090E0E0
:100340000895FC018281823019F0833071F406C077
:1003500080E00E94860080E090E008958AEA92E0C2
:100360009183808382E090E0089587ED91E091830E
:10037000808383E090E00895FC018281823019F04F
:10038000833071F406C080E00E949E0080E090E01F
:1003900008958AE692E09183808382E090E0089558
:1003A00087ED91E09183808383E090E00895FC01E4
:1003B0008281833069F0863071F0813099F480E079
:1003C0000E94860080E00E949E0080E090E00895F8
:1003D00081EA91E002C089EF91E09183808382E01D
:1003E00090E008958DEC92E09183808383E090E02B
:1003F0000895CF93DF93EC018A81843059F08730E0
:1004000019F1813041F569E170E0CE010E94BD042F
:100410001A8617C069E170E0CE010E94BD048A858A
:1004200080FD05C080E00E94860080E004C083E07B
:100430000E94860081E00E949E008A8591E08927C3
:100440008A8780E090E00DC087ED91E099838883F2
:1004500082E090E006C08DEC92E09983888383E08F
:1004600090E0DF91CF910895CF93DF93EC018A81E3
:10047000813019F0843029F508C06AE070E0CE01BF
:100480000E94BD0485E18A8712C08A85882391F085
:1004900080FD02C080E001C081E00E949E008A854C
:1004A00081508A876AE070E0CE010E94BD0480E03E
:1004B00090E00DC081EA91E09983888382E090E02A
:1004C00006C08CEB91E09983888383E090E0DF9114
:1004D000CF910895FC018281813019F0843099F424
:1004E0000BC066E970E0CF010E94BD0482E00E946B
:1004F0009E0080E090E0089584E392E09183808301
:1005000082E090E008958CEB91E09183808383E01A
:1005100090E00895FC018281813019F0843099F4D3
:100520000BC066E970E0CF010E94BD0481E00E942B
:10053000860080E090E008958CEB91E091838083C9
:1005400082E090E0089581EA91E09183808383E0E6
:1005500090E00895FC018281813019F0833099F494
:100560000BC060E971E0CF010E94BD0482E00E94EF
:10057000860080E090E0089585E591E09183808396
:1005800082E090E0089581EA91E09183808383E0A6
:1005900090E0089580E790E0089581E090E008956C
:1005A0007F928F929F92AF92BF92CF92DF92EF9203
:1005B000FF920F931F93CF93DF93CDB7DEB72A97A8
:1005C0000FB6F894DEBF0FBECDBF8C01DC01CD901D
:1005D000DC90F801E080F180C801F70109958330D3
:1005E000C1F3823009F035C1D8018D919C919A8375
:1005F0008983DC82CB8210C082E0F8018283C8014B
:10060000F6010995882329F4F8011282C801F60140
:100610000995D801CD90DC90CE14DF0469F7A9804C
:10062000BA80CA14DB04B9F0F8011282C801F501DE
:100630000995D801ED90FC90CE14DF0409F4A1C017
:10064000F8011282C801F6010995D8018D909C909D
:100650008E149F0439F482E0F8018283C801F60108
:1006600009958FC08A149B0459F482E0F8018283B3
:10067000C801F6010995AFEFAA2E84C0AE2E82C044
:10068000FC82EB82F8011282C801F70109957724F8
:10069000F1E0AF2E23C0BA2CB394D801ED90FC90BA
:1006A000EC14FD0469F4B4E0BB1534F464EC70E0C0
:1006B0008BE690E00E948200E1E07E2E80E004C0A4
:1006C000C801F7010995AB2CEB2DFF27E7FDF0954D
:1006D000EE0FFF1FEC0FFD1FF282E1828330D9F293
:1006E000772009F04FC0E4E0EA1534F46FEC70E0D5
:1006F0008BE690E00E94820082E0F8018283C801CC
:10070000F60109952A2DAE014F5F5F4FE22FFF27BB
:10071000E7FDF095EE0FFF1FE40FF51F808191813B
:10072000E22FE1508816990609F4A8CF2E2FE7FF93
:10073000EDCF82E0F8018283C801F4010995882396
:1007400029F4F8011282C801F4010995D8018D90AD
:100750009C902A2DAE014F5F5F4FE22FFF27E7FDF0
:10076000F095EE0FFF1FE40FF51F80819181E22FBE
:10077000E1508816990609F481CF2E2FE7FFEDCFBF
:10078000D8CFAA2481E0F80182830EC0EA2DFF278A
:10079000E7FDF095EE0FFF1FEC0FFD1F0180F281CA
:1007A000E02DC8010995AA94A7FEF0CFC980DA8090
:1007B000D801CD92DC9244C0D8012D913C913A836E
:1007C0002983F8011282C801F9010995BB2493E03D
:1007D000E92EF12CEC0EFD1E07C0B394D701ED936A
:1007E000FD937D01C8010995D801ED91FC91119708
:1007F000EC15FD0591F7C980DA80CD92DC92B4E06A
:10080000BB1534F46CE171E08BE690E00E9482004D
:1008100081E0F8018283EB2CFF24E7FCF094EE0CDE
:10082000FF1CFE01EE0DFF1D0180F281E02DC801CD
:100830000995BA948EEF9FEFE80EF91EB7FEF1CF3F
:1008400083E0F8018283C801F6010995823009F43A
:10085000B3CFD801CD92DC922A960FB6F894DEBFC2
:100860000FBECDBFDF91CF911F910F91FF90EF9001
:10087000DF90CF90BF90AF909F908F907F90089522
:10088000AF92BF92DF92EF92FF920F931F93CF939D
:10089000DF93CDB7DEB72A970FB6F894DEBF0FBE51
:1008A000CDBF7C01DC01ED91FC910995823031F0E6
:1008B00069E570E08BE690E00E9482001DECA12EBD
:1008C00012E0B12EF701208131813A83298312820F
:1008D000C701F9010995DD248E010D5F1F4F07C087
:1008E000D394D801ED93FD938D01C7010995D701EC
:1008F000ED91FC911197EA15FB0591F7A980BA805B
:10090000AD92BC92B4E0BD1534F469E670E08BE6BC
:1009100090E00E94820081E0F70182830D2D112773
:1009200007FD1095000F111FFE01E00FF11F018060
:10093000F281E02DC7010995DA9402501040D7FEEC
:10094000F3CF83E0F7018283C701F5010995823077
:1009500009F4B8CFD701AD92BC922A960FB6F8949D
:10096000DEBF0FBECDBFDF91CF911F910F91FF90E2
:10097000EF90DF90BF90AF900895FC01F8947187DD
:10098000608778940895FC01F89411861086789415
:100990000895FF920F931F93CF93DF93EC01062FDF
:1009A000F42E8F81EC81882371F481E08F836A8338
:1009B0004B8380912201FF27EC56FF4FE4918E2B51
:1009C000809322013EC015E0E19FF0011124E05A1E
:1009D000FF4FE491E81730F46CE670E087E790E0B1
:1009E0000E9482008F818F5F8F83EC81E19FF001F5
:1009F0001124E25AFF4F85919491ED81FF27EE0F6C
:100A0000FF1FE80FF91F0083EC81E19FF001112423
:100A1000E25AFF4F85919491ED81FF27EE0FFF1F62
:100A2000E80FF91FF1828D81882341F4EC81E19F69
:100A3000F0011124E05AFF4FE491ED838D81815044
:100A40008D83DF91CF911F910F91FF90089582E0E8
:100A500080930B01E0910B0185E0E89FF0011124E8
:100A6000E45AFF4FA591B491B0930A01A0930901F4
:100A7000FD0180859185009751F0019791878087CE
:100A8000892B29F440E064E0CD010E94C9048091E3
:100A90000B01815080930B018823E1F60895FF92AA
:100AA0000F931F93CF93DF93EC01062FF42EF8944E
:100AB0008F81EC81882371F481E08F836A834B837B
:100AC00080912201FF27EC56FF4FE4918E2B8093FB
:100AD00022013EC015E0E19FF0011124E05AFF4FD2
:100AE000E491E81730F464E470E087E790E00E9456
:100AF00082008F818F5F8F83EC81E19FF001112451
:100B0000E25AFF4F85919491ED81FF27EE0FFF1F71
:100B1000E80FF91F0083EC81E19FF0011124E25AF4
:100B2000FF4F85919491ED81FF27EE0FFF1FE80F96
:100B3000F91FF1828D81882341F4EC81E19FF0015E
:100B40001124E05AFF4FE491ED838D8181508D8314
:100B50007894DF91CF911F910F91FF9008950F939B
:100B60001F93CF93DF9381E080930601E5E08E9F92
:100B7000F0011124E45AFF4F85919491909308015C
:100B800080930701892B31F469EB70E087E790E0EF
:100B90000E94820080910601E0910701F091080116
:100BA00084838F5F80930601833000F381E080931C
:100BB0000601E5E08E9FF0011124E45AFF4F859174
:100BC000949190930801809307010E9440048091C2
:100BD00006018F5F80930601833058F30E947200F4
:100BE000F89480912201882309F459C08091220150
:100BF000E82FFF27EC57FF4F8491809306017894EC
:100C0000E5E08E9FF0011124E45AFF4F8591949105
:100C100090930801809307010E94D002F894C0913C
:100C20000701D09108018F8181508F83882361F45F
:100C300080912201E0910601FF27E558FF4FE491E2
:100C40008E238093220129C09C8185E0989FB0016A
:100C50001124CB010296FC01E45AFF4FA591B491F7
:100C60004E81042F1127000F111FA00FB11F2C91CF
:100C70002A83845A9F4FFC0125913491020F131F40
:100C8000F80181818B83442329F4FB01E05AFF4F53
:100C9000E491EE838E8181508E837894A1CF0E945F
:040CA0007A009ECF69
:00000001FF
